{
  "contractName": "DIDContract",
  "abi": [
    {
      "anonymous": false,
      "inputs": [
        {
          "indexed": true,
          "internalType": "address",
          "name": "user",
          "type": "address"
        },
        {
          "indexed": false,
          "internalType": "string",
          "name": "name",
          "type": "string"
        },
        {
          "indexed": false,
          "internalType": "string",
          "name": "email",
          "type": "string"
        }
      ],
      "name": "UserRegistered",
      "type": "event"
    },
    {
      "inputs": [
        {
          "internalType": "address",
          "name": "",
          "type": "address"
        }
      ],
      "name": "users",
      "outputs": [
        {
          "internalType": "string",
          "name": "name",
          "type": "string"
        },
        {
          "internalType": "string",
          "name": "email",
          "type": "string"
        }
      ],
      "stateMutability": "view",
      "type": "function"
    },
    {
      "inputs": [
        {
          "internalType": "string",
          "name": "_name",
          "type": "string"
        },
        {
          "internalType": "string",
          "name": "_email",
          "type": "string"
        }
      ],
      "name": "registerUser",
      "outputs": [],
      "stateMutability": "nonpayable",
      "type": "function"
    },
    {
      "inputs": [],
      "name": "getUserInfo",
      "outputs": [
        {
          "internalType": "string",
          "name": "",
          "type": "string"
        },
        {
          "internalType": "string",
          "name": "",
          "type": "string"
        }
      ],
      "stateMutability": "view",
      "type": "function"
    }
  ],
  "bytecode": "0x608060405234801561000f575f80fd5b50610c2f8061001d5f395ff3fe608060405234801561000f575f80fd5b506004361061003f575f3560e01c80631d2e4afd146100435780635d8d15851461005f578063a87430ba1461007e575b5f80fd5b61005d600480360381019061005891906106ad565b6100af565b005b61006761020d565b60405161007592919061079d565b60405180910390f35b6100986004803603810190610093919061082c565b610435565b6040516100a692919061079d565b60405180910390f35b5f805f3373ffffffffffffffffffffffffffffffffffffffff1673ffffffffffffffffffffffffffffffffffffffff1681526020019081526020015f205f0180546100f990610884565b90501461013b576040517f08c379a0000000000000000000000000000000000000000000000000000000008152600401610132906108fe565b60405180910390fd5b6040518060400160405280838152602001828152505f803373ffffffffffffffffffffffffffffffffffffffff1673ffffffffffffffffffffffffffffffffffffffff1681526020019081526020015f205f820151815f01908161019f9190610ac2565b5060208201518160010190816101b59190610ac2565b509050503373ffffffffffffffffffffffffffffffffffffffff167f92822564bab8864c3a47b34e8d23fbce5c46234eb5da261f94087b995ac0f33b838360405161020192919061079d565b60405180910390a25050565b6060805f805f3373ffffffffffffffffffffffffffffffffffffffff1673ffffffffffffffffffffffffffffffffffffffff1681526020019081526020015f205f01805461025a90610884565b90500361029c576040517f08c379a000000000000000000000000000000000000000000000000000000000815260040161029390610bdb565b60405180910390fd5b5f803373ffffffffffffffffffffffffffffffffffffffff1673ffffffffffffffffffffffffffffffffffffffff1681526020019081526020015f205f015f803373ffffffffffffffffffffffffffffffffffffffff1673ffffffffffffffffffffffffffffffffffffffff1681526020019081526020015f2060010181805461032590610884565b80601f016020809104026020016040519081016040528092919081815260200182805461035190610884565b801561039c5780601f106103735761010080835404028352916020019161039c565b820191905f5260205f20905b81548152906001019060200180831161037f57829003601f168201915b505050505091508080546103af90610884565b80601f01602080910402602001604051908101604052809291908181526020018280546103db90610884565b80156104265780601f106103fd57610100808354040283529160200191610426565b820191905f5260205f20905b81548152906001019060200180831161040957829003601f168201915b50505050509050915091509091565b5f602052805f5260405f205f91509050805f01805461045390610884565b80601f016020809104026020016040519081016040528092919081815260200182805461047f90610884565b80156104ca5780601f106104a1576101008083540402835291602001916104ca565b820191905f5260205f20905b8154815290600101906020018083116104ad57829003601f168201915b5050505050908060010180546104df90610884565b80601f016020809104026020016040519081016040528092919081815260200182805461050b90610884565b80156105565780601f1061052d57610100808354040283529160200191610556565b820191905f5260205f20905b81548152906001019060200180831161053957829003601f168201915b5050505050905082565b5f604051905090565b5f80fd5b5f80fd5b5f80fd5b5f80fd5b5f601f19601f8301169050919050565b7f4e487b71000000000000000000000000000000000000000000000000000000005f52604160045260245ffd5b6105bf82610579565b810181811067ffffffffffffffff821117156105de576105dd610589565b5b80604052505050565b5f6105f0610560565b90506105fc82826105b6565b919050565b5f67ffffffffffffffff82111561061b5761061a610589565b5b61062482610579565b9050602081019050919050565b828183375f83830152505050565b5f61065161064c84610601565b6105e7565b90508281526020810184848401111561066d5761066c610575565b5b610678848285610631565b509392505050565b5f82601f83011261069457610693610571565b5b81356106a484826020860161063f565b91505092915050565b5f80604083850312156106c3576106c2610569565b5b5f83013567ffffffffffffffff8111156106e0576106df61056d565b5b6106ec85828601610680565b925050602083013567ffffffffffffffff81111561070d5761070c61056d565b5b61071985828601610680565b9150509250929050565b5f81519050919050565b5f82825260208201905092915050565b5f5b8381101561075a57808201518184015260208101905061073f565b5f8484015250505050565b5f61076f82610723565b610779818561072d565b935061078981856020860161073d565b61079281610579565b840191505092915050565b5f6040820190508181035f8301526107b58185610765565b905081810360208301526107c98184610765565b90509392505050565b5f73ffffffffffffffffffffffffffffffffffffffff82169050919050565b5f6107fb826107d2565b9050919050565b61080b816107f1565b8114610815575f80fd5b50565b5f8135905061082681610802565b92915050565b5f6020828403121561084157610840610569565b5b5f61084e84828501610818565b91505092915050565b7f4e487b71000000000000000000000000000000000000000000000000000000005f52602260045260245ffd5b5f600282049050600182168061089b57607f821691505b6020821081036108ae576108ad610857565b5b50919050565b7f5573657220616c726561647920726567697374657265640000000000000000005f82015250565b5f6108e860178361072d565b91506108f3826108b4565b602082019050919050565b5f6020820190508181035f830152610915816108dc565b9050919050565b5f819050815f5260205f209050919050565b5f6020601f8301049050919050565b5f82821b905092915050565b5f600883026109787fffffffffffffffffffffffffffffffffffffffffffffffffffffffffffffffff8261093d565b610982868361093d565b95508019841693508086168417925050509392505050565b5f819050919050565b5f819050919050565b5f6109c66109c16109bc8461099a565b6109a3565b61099a565b9050919050565b5f819050919050565b6109df836109ac565b6109f36109eb826109cd565b848454610949565b825550505050565b5f90565b610a076109fb565b610a128184846109d6565b505050565b5b81811015610a3557610a2a5f826109ff565b600181019050610a18565b5050565b601f821115610a7a57610a4b8161091c565b610a548461092e565b81016020851015610a63578190505b610a77610a6f8561092e565b830182610a17565b50505b505050565b5f82821c905092915050565b5f610a9a5f1984600802610a7f565b1980831691505092915050565b5f610ab28383610a8b565b9150826002028217905092915050565b610acb82610723565b67ffffffffffffffff811115610ae457610ae3610589565b5b610aee8254610884565b610af9828285610a39565b5f60209050601f831160018114610b2a575f8415610b18578287015190505b610b228582610aa7565b865550610b89565b601f198416610b388661091c565b5f5b82811015610b5f57848901518255600182019150602085019450602081019050610b3a565b86831015610b7c5784890151610b78601f891682610a8b565b8355505b6001600288020188555050505b505050505050565b7f55736572206e6f742072656769737465726564000000000000000000000000005f82015250565b5f610bc560138361072d565b9150610bd082610b91565b602082019050919050565b5f6020820190508181035f830152610bf281610bb9565b905091905056fea2646970667358221220be2fa03c31c9aae79f8c7ef8acabf806a783df462bcc05f7212f52d4dc26c42764736f6c63430008150033",
  "immutableReferences": {},
  "source": "// SPDX-License-Identifier: MIT\npragma solidity ^0.8.0;\n\ncontract DIDContract {\n    struct UserInfo {\n        string name;\n        string email;\n    }\n\n    mapping(address => UserInfo) public users;\n    event UserRegistered(address indexed user, string name, string email);\n\n    function registerUser(string memory _name, string memory _email) public {\n        require(bytes(users[msg.sender].name).length == 0, \"User already registered\");\n        users[msg.sender] = UserInfo(_name, _email);\n        emit UserRegistered(msg.sender, _name, _email);\n    }\n\n    function getUserInfo() public view returns (string memory, string memory) {\n        require(bytes(users[msg.sender].name).length != 0, \"User not registered\");\n        return (users[msg.sender].name, users[msg.sender].email);\n    }\n}",
  "sourcePath": "/Users/akshitanchan/Downloads/Projects/IdentiChain/identichain/contracts/DIDContract.sol",
  "compiler": {
    "name": "solc",
    "version": "0.8.21+commit.d9974bed.Emscripten.clang"
  },
  "schemaVersion": "3.4.16",
  "updatedAt": "2023-11-14T09:17:33.268Z",
  "devdoc": {
    "kind": "dev",
    "methods": {},
    "version": 1
  },
  "userdoc": {
    "kind": "user",
    "methods": {},
    "version": 1
  }
}