{
  "contractName": "VerifiableCredentialContract",
  "abi": [
    {
      "anonymous": false,
      "inputs": [
        {
          "indexed": true,
          "internalType": "address",
          "name": "user",
          "type": "address"
        },
        {
          "indexed": false,
          "internalType": "string",
          "name": "credentialType",
          "type": "string"
        }
      ],
      "name": "CredentialIssued",
      "type": "event"
    },
    {
      "inputs": [
        {
          "internalType": "address",
          "name": "",
          "type": "address"
        }
      ],
      "name": "verifiableCredentials",
      "outputs": [
        {
          "internalType": "string",
          "name": "credentialType",
          "type": "string"
        }
      ],
      "stateMutability": "view",
      "type": "function"
    },
    {
      "inputs": [
        {
          "internalType": "string",
          "name": "_credentialType",
          "type": "string"
        }
      ],
      "name": "issueCredential",
      "outputs": [],
      "stateMutability": "nonpayable",
      "type": "function"
    },
    {
      "inputs": [],
      "name": "getVerifiableCredential",
      "outputs": [
        {
          "internalType": "string",
          "name": "",
          "type": "string"
        }
      ],
      "stateMutability": "view",
      "type": "function"
    }
  ],
  "bytecode": "0x608060405234801561000f575f80fd5b50610a6e8061001d5f395ff3fe608060405234801561000f575f80fd5b506004361061003f575f3560e01c80631643886714610043578063811f948714610061578063b82ad5d21461007d575b5f80fd5b61004b6100ad565b604051610058919061046d565b60405180910390f35b61007b600480360381019061007691906105ca565b610205565b005b6100976004803603810190610092919061066b565b610344565b6040516100a4919061046d565b60405180910390f35b60605f805f3373ffffffffffffffffffffffffffffffffffffffff1673ffffffffffffffffffffffffffffffffffffffff1681526020019081526020015f205f0180546100f9906106c3565b90501461013b576040517f08c379a00000000000000000000000000000000000000000000000000000000081526004016101329061073d565b60405180910390fd5b5f803373ffffffffffffffffffffffffffffffffffffffff1673ffffffffffffffffffffffffffffffffffffffff1681526020019081526020015f205f018054610184906106c3565b80601f01602080910402602001604051908101604052809291908181526020018280546101b0906106c3565b80156101fb5780601f106101d2576101008083540402835291602001916101fb565b820191905f5260205f20905b8154815290600101906020018083116101de57829003601f168201915b5050505050905090565b5f805f3373ffffffffffffffffffffffffffffffffffffffff1673ffffffffffffffffffffffffffffffffffffffff1681526020019081526020015f205f01805461024f906106c3565b905014610291576040517f08c379a0000000000000000000000000000000000000000000000000000000008152600401610288906107a5565b60405180910390fd5b6040518060200160405280828152505f803373ffffffffffffffffffffffffffffffffffffffff1673ffffffffffffffffffffffffffffffffffffffff1681526020019081526020015f205f820151815f0190816102ef9190610969565b509050503373ffffffffffffffffffffffffffffffffffffffff167fd4c8606c8f5e033bdf2d421963e26a29fde60cd3907a89758f5d8500b5b566bf82604051610339919061046d565b60405180910390a250565b5f602052805f5260405f205f91509050805f018054610362906106c3565b80601f016020809104026020016040519081016040528092919081815260200182805461038e906106c3565b80156103d95780601f106103b0576101008083540402835291602001916103d9565b820191905f5260205f20905b8154815290600101906020018083116103bc57829003601f168201915b5050505050905081565b5f81519050919050565b5f82825260208201905092915050565b5f5b8381101561041a5780820151818401526020810190506103ff565b5f8484015250505050565b5f601f19601f8301169050919050565b5f61043f826103e3565b61044981856103ed565b93506104598185602086016103fd565b61046281610425565b840191505092915050565b5f6020820190508181035f8301526104858184610435565b905092915050565b5f604051905090565b5f80fd5b5f80fd5b5f80fd5b5f80fd5b7f4e487b71000000000000000000000000000000000000000000000000000000005f52604160045260245ffd5b6104dc82610425565b810181811067ffffffffffffffff821117156104fb576104fa6104a6565b5b80604052505050565b5f61050d61048d565b905061051982826104d3565b919050565b5f67ffffffffffffffff821115610538576105376104a6565b5b61054182610425565b9050602081019050919050565b828183375f83830152505050565b5f61056e6105698461051e565b610504565b90508281526020810184848401111561058a576105896104a2565b5b61059584828561054e565b509392505050565b5f82601f8301126105b1576105b061049e565b5b81356105c184826020860161055c565b91505092915050565b5f602082840312156105df576105de610496565b5b5f82013567ffffffffffffffff8111156105fc576105fb61049a565b5b6106088482850161059d565b91505092915050565b5f73ffffffffffffffffffffffffffffffffffffffff82169050919050565b5f61063a82610611565b9050919050565b61064a81610630565b8114610654575f80fd5b50565b5f8135905061066581610641565b92915050565b5f602082840312156106805761067f610496565b5b5f61068d84828501610657565b91505092915050565b7f4e487b71000000000000000000000000000000000000000000000000000000005f52602260045260245ffd5b5f60028204905060018216806106da57607f821691505b6020821081036106ed576106ec610696565b5b50919050565b7f43726564656e7469616c206e6f742069737375656400000000000000000000005f82015250565b5f6107276015836103ed565b9150610732826106f3565b602082019050919050565b5f6020820190508181035f8301526107548161071b565b9050919050565b7f43726564656e7469616c20616c726561647920697373756564000000000000005f82015250565b5f61078f6019836103ed565b915061079a8261075b565b602082019050919050565b5f6020820190508181035f8301526107bc81610783565b9050919050565b5f819050815f5260205f209050919050565b5f6020601f8301049050919050565b5f82821b905092915050565b5f6008830261081f7fffffffffffffffffffffffffffffffffffffffffffffffffffffffffffffffff826107e4565b61082986836107e4565b95508019841693508086168417925050509392505050565b5f819050919050565b5f819050919050565b5f61086d61086861086384610841565b61084a565b610841565b9050919050565b5f819050919050565b61088683610853565b61089a61089282610874565b8484546107f0565b825550505050565b5f90565b6108ae6108a2565b6108b981848461087d565b505050565b5b818110156108dc576108d15f826108a6565b6001810190506108bf565b5050565b601f821115610921576108f2816107c3565b6108fb846107d5565b8101602085101561090a578190505b61091e610916856107d5565b8301826108be565b50505b505050565b5f82821c905092915050565b5f6109415f1984600802610926565b1980831691505092915050565b5f6109598383610932565b9150826002028217905092915050565b610972826103e3565b67ffffffffffffffff81111561098b5761098a6104a6565b5b61099582546106c3565b6109a08282856108e0565b5f60209050601f8311600181146109d1575f84156109bf578287015190505b6109c9858261094e565b865550610a30565b601f1984166109df866107c3565b5f5b82811015610a06578489015182556001820191506020850194506020810190506109e1565b86831015610a235784890151610a1f601f891682610932565b8355505b6001600288020188555050505b50505050505056fea26469706673582212207cfdd8bd507f228ef29795b73b938ae8ef099b1b87b00bc4be78690dd58aff8564736f6c63430008150033",
  "immutableReferences": {},
  "source": "// SPDX-License-Identifier: MIT\npragma solidity ^0.8.0;\n\ncontract VerifiableCredentialContract {\n    struct VerifiableCredential {\n        string credentialType;\n    }\n\n    mapping(address => VerifiableCredential) public verifiableCredentials;\n    event CredentialIssued(address indexed user, string credentialType);\n\n    function issueCredential(string memory _credentialType) public {\n        require(bytes(verifiableCredentials[msg.sender].credentialType).length == 0, \"Credential already issued\");\n        verifiableCredentials[msg.sender] = VerifiableCredential(_credentialType);\n        emit CredentialIssued(msg.sender, _credentialType);\n    }\n\n    function getVerifiableCredential() public view returns (string memory) {\n        require(bytes(verifiableCredentials[msg.sender].credentialType).length == 0, \"Credential not issued\");\n        return verifiableCredentials[msg.sender].credentialType;\n    }\n}",
  "sourcePath": "/Users/akshitanchan/Downloads/Projects/IdentiChain/identichain/contracts/VerifiableCredentialContract.sol",
  "compiler": {
    "name": "solc",
    "version": "0.8.21+commit.d9974bed.Emscripten.clang"
  },
  "schemaVersion": "3.4.16",
  "updatedAt": "2023-11-14T09:17:33.270Z",
  "devdoc": {
    "kind": "dev",
    "methods": {},
    "version": 1
  },
  "userdoc": {
    "kind": "user",
    "methods": {},
    "version": 1
  }
}